:1000000075C084C083C082C081C080C07FC07EC0F4
:100010007DC039C47BC07AC079C078C077C076C053
:1000200075C000002100420063008400A500C600E6
:10003000E700080029004A006B008C00AD00CE00EC
:10004000EF00000010002000300040005000600071
:10005000700081009100A100B100C100D100E10059
:10006000F100CEED6666CC0D000B03730083000C2F
:10007000000D0008111F8889000EDCCC6EE6DDDD66
:10008000D999BBBB67636E0EECCCDDDC999FBBB925
:10009000333E5555AA2AAA555555F00555AA02AA28
:1000A000550555F05555AA2AAA555555900555AAF6
:1000B00002AA550555905555AA2AAA555555805559
:1000C00055AA2AAA555555100555AA02AA550555EF
:1000D000800555AA02AA550555105555AA2AAA55B4
:1000E0005555A00555AA02AA550555A011241FBEB5
:1000F000CFE5D2E0DEBFCDBF20E0A0E6B0E001C09A
:100100001D92A33FB207E1F7EFD3A6C579CF5D9B60
:10011000FECF8CB9089580E488BF1DBC1CBC8DE067
:100120008EBD08951EBC1DBC1CBC80E488BF089514
:1001300085BB8FEF84BB82E08150F1F7939882E01A
:100140008150F1F7939A82E08150F1F714BA8FEF62
:1001500085BB089514BA8FEF85BB82E08150F1F71B
:10016000949882E08150F1F783B3949A92E0915091
:10017000F1F7089585BB8FEF84BB82E08150F1F7E2
:10018000979882E08150F1F7979A82E08150F1F7D9
:1001900014BA8FEF85BB0895929888E99AE3019786
:1001A000F1F796988CED95E00197F1F7969A8CED22
:1001B00095E00197F1F7089518BA1BBA8AE0B8DF05
:1001C00084E08150F1F7089518BA1BBA80E0B0CFEF
:1001D000CF93DF9390916500923031F09330C9F165
:1001E000913009F049C037C06078811116C098BFBE
:1001F00012BE93BFC62FD0E084E08150F1F7AADF92
:10020000807890E08C179D0719F008B601FEF4CFB6
:1002100013BE12BE82E088BF3FC0C62FD0E084E08C
:100220008150F1F797DF807890E08C179D07B9F740
:1002300033C08150F1F78EDFC82FC07484E0815045
:10024000F1F788DF2C2F30E0807490E02817390711
:1002500019F184E0EECF811104C08EE68150F1F7F0
:100260001BC023E33AE088E99AE30197F1F73150A4
:10027000D1F72150B9F710C0811104C08CED815025
:10028000F1F70AC025E63AE088E99AE30197F1F729
:100290003150D1F72150B9F7DF91CF91089588E41B
:1002A00090E0FC01E859FF4F1082019781309105E1
:1002B000C1F785E58093680008953091F2002091A0
:1002C0006000932F92959F70892790E0880F991F67
:1002D000FC01EE5BFF4FE49160E1369FA001112429
:1002E000322F32953F70432B4E274093F200FC0192
:1002F000EE5DFF4F849190E1299FF0011124E827E2
:10030000E093600008950F931F93CF93DF931092B3
:1003100060001092F200C8E6D0E0FE0181918F01EA
:1003200082958F70CADF88818F70C7DFE8010E5A0F
:10033000104099F7DF91CF911F910F9108959091FF
:100340006700923020F418BA90E69BBBF1CE089576
:10035000CF93C62F18BA90916700953071F099230A
:1003600061F0933051F080E28BBB8C2FE1DE809105
:100370006700823098F482E007C090E39BBBD8DE30
:1003800082E08150F1F7EFCF8150F1F780E48BBB31
:100390008C2F829586958770CF91CACECF91089584
:1003A00068BB272F30E02032310540F4206A2BBB98
:1003B00092E09150F1F79598BBDE959A08952F92AF
:1003C0003F924F925F926F927F928F929F92AF92E5
:1003D000BF92CF92DF92EF92FF920F931F93CF9332
:1003E000DF9300D000D000D0CDB7DEB7582ED4DEDA
:1003F000552019F080E0A3DF03C081E0A0DFDCDE40
:1004000060906300712C762C662480916400680EE5
:10041000711C2FEF6216720621F42EEF622E7724E4
:100420007A94511003C03FE7398302C04FEF4983EC
:10043000109262001092F1008AEA69DE00E010E09A
:100440009981892F90E09C838B83E1E05E1629F0EF
:1004500018BAF0E4FBBB802F6BDE212E90EB892EC7
:1004600090E0992E919481949108E12CF12C302EFA
:10047000CE2C8FEF8E0D282F2F7729835110898353
:10048000D12C1A8248DE8091F1008834F8F04ADEDF
:1004900080916800853569F436DF9091AE008091D7
:1004A000F200981306C09091AF00809160009817F9
:1004B00091F08A818F5F8A838A3018F08FE027DE7F
:1004C000A4C01092F10080EF22DEDCCF08B606FE59
:1004D000DACF28DE9AC080916900813021F08091C6
:1004E0006900823059F780916B00C812A7C08091D3
:1004F0006C002812E3CF80916D003812DFCFA0EBA3
:10050000B0E0E8E6F0E086818D93319690E0E83A3D
:10051000F907C9F7E0916900EA831092F1008AEACD
:10052000F6DDF0E4F98380EBC82E80E0D82E96014A
:10053000280D391D3E832D83552009F493C0F60103
:100540004080211089C0311087C061E080E000DF69
:10055000A12CB12C80916600F50129E0289FE00DC7
:10056000F11D1124CF01E652FF4FE491EBBBFC01DA
:10057000E552FF4FE491E8BBFC01E452FF4F849148
:10058000F9DD33E0A30EB11C49E0A416B10411F764
:10059000632D822DDDDEBE80BBBAAD80A8BA842D6E
:1005A000E9DD1E821D82ED81FE81ED51FF4FE49158
:1005B000EBBBED81FE81EC51FF4FE491E8BBED8197
:1005C000FE81EB51FF4F8491B3DD8D819E810396B7
:1005D0009E838D83099739F7BBBAA8BA842DA8DD0D
:1005E00080E0ADDE632D822DB3DEBBBAA8BA642DE8
:1005F00080E0EEDDFFEFCF1ADF0A29812150298349
:10060000211195CF3A81323099F526960FB6F8949C
:10061000DEBF0FBECDBFDF91CF911F910F91FF9035
:10062000EF90DF90CF90BF90AF909F908F907F9092
:100630006F905F904F903F902F90C6CD80916B0050
:10064000398183133BCFD39449E04D1508F436CF5D
:100650001092F1008AEA38CF2D813E8130643E83CA
:100660002D8373CF6D817E81F601808199DEC2CFAB
:100670004FEFE41AF40A80E4880E911CEB81FC81B0
:10068000EE15FF0508F0F4CE0F5F1F4F60167106E0
:1006900008F0DBCEBACF2F923F924F925F926F92CB
:1006A0007F928F929F92AF92BF92CF92DF92EF9202
:1006B000FF920F931F93CF93DF93582E6DDD55203C
:1006C00019F080E03CDE03C081E039DE75DDC091C9
:1006D0006300D0E0DC2FCC2780916400C80FD11DCF
:1006E000CF3F8FEFD80711F4CEEFDFEF511002C0EC
:1006F0008FE701C08FEF91E09093620000E010E07F
:1007000030E4232E682E712C552021F0602F812F8C
:100710001FDE04C018BA2BBA802F0ADD312EE12C5F
:10072000F12CC12CD12C402EBADDC017D10719F401
:10073000C614D70411F081E001C082E08093690003
:10074000C0926B0030926C0040926D004701E0E473
:100750008E0E911C28E6A22E20E0B22E8F2D992716
:10076000E8BA552069F080349105B0F4282F311093
:1007700002C0442011F0282F20642BBBEBDC0DC0FD
:100780008032910548F4806A8BBB82E08150F1F79A
:100790009598E0DC959A01C08FEFF5018683FFEF15
:1007A000EF1AFF0A8FEFA81AB80AE814F904B1F695
:1007B000AADD8091F2008093AE008091600080936A
:1007C000AF001092610089E0B82EE8E6F0E07F010A
:1007D0008FEFE81AF80A80819ADCF70180E0E03BAD
:1007E000F807A9F798DC80916100882351F09ADC22
:1007F0008091F0008F30B1F08091F0008A3A31F4AE
:1008000027C008B606FEEFCF8DDC0CC01092610049
:10081000BA94BB2039F0D9CF0F5F1F4FC017D10753
:1008200008F072CFE1E05E16D9F0DF91CF911F9111
:100830000F91FF90EF90DF90CF90BF90AF909F907F
:100840008F907F906F905F904F903F902F90BCCC97
:10085000FFEFCF1ADF0A6C147D04F0F2740164CF4D
:10086000DF91CF911F910F91FF90EF90DF90CF908C
:10087000BF90AF909F908F907F906F905F904F90C0
:100880003F902F9008951F920F920FB60F92112450
:100890008F93EF93FF938091620081110FC080913D
:1008A000F100883458F4E091F10081E08E0F8093DC
:1008B000F100F0E08CB1E859FF4F80838091620035
:1008C000882351F080916100811106C08CB1809322
:1008D000F00081E080936100FF91EF918F910F9084
:1008E0000FBE0F901F9018951BBA8FEF8ABB18BAD6
:1008F00087BB14BA85BB82BB8EEF81BB85E087B90D
:1009000092E096B985B18570813011F499B908C02B
:1009100085B18570843011F419B802C081E089B9BD
:1009200016B887E087B984E48BBD8AEA8ABD80E87F
:1009300088B988E98AB9789412E090E1F92E09E043
:1009400022E1E22E30E4D32E8091F1008823E1F3FE
:10095000E2DB08B606FE04C0E5DB1092F100F4CF3E
:100960008091F1008834A8F3DDDB80916800853543
:10097000B9F4C9DC9091AE008091F200981310C0D8
:100980009091AF008091600098130AC0C0916900F7
:10099000C33081F0C43009F472C0CC2309F433C1F0
:1009A00080EFB5DB1092F1001092620018BA1BBA0A
:1009B000929ACACFF1DB80916B008093670080919F
:1009C0006A008823F9F081E0BADCF6DB80916C00E4
:1009D000C0E0D0E018BADBBA8C2FAADBA12CB12C76
:1009E000B50180E0DDDC2FEFA21AB20AA11430E2DB
:1009F000B306B1F7219680916C0090E08C179D07AB
:100A000048F73AC080916C008170809366008091B5
:100A10006D008093650061E080E09ADCC0E0D0E08A
:100A200080916600FE01E89EE00DF11D1124CF01CA
:100A3000EA54FF4FE491EBBBFC01E954FF4FE49112
:100A4000E8BBFC01E854FF4F849194DBFE01E853BE
:100A5000FF4FE491EBBBFE01E753FF4FE491E8BB8E
:100A6000FE01E653FF4F849163DB2396C231D1052B
:100A7000B9F66FEF81E0ACDBA7DB8AEA92CF809119
:100A80006A00813059F480916B00809367008091F7
:100A90006C00817080936600D1E001C0D0E0FFDB84
:100AA000DD2309F498C078DB81E08093700082E652
:100AB000A82E80E0B82ED1E0C8BBDBBB4BDBF50134
:100AC0009491981310927000FFEFAF1ABF0ACF5F96
:100AD000C43391F7C4E3D1E0CC24C3949E01235CDA
:100AE00030405901C8BBCBBA35DBF5018083219674
:100AF000C035F1E0DF0791F784E08150F1F761E064
:100B000027DCC0E0D0E0809166009E01089F200DA8
:100B1000311D1124F901EC55FF4FE491EBBBF901B4
:100B2000EB55FF4FE491E8BBF901EA55FF4F849183
:100B300021DBFE01E355FF4FE491EBBBFE01E255E3
:100B4000FF4FE491E8BBFE01E155FF4F8491F0DADD
:100B50002396C930D105B9F68CED8150F1F718BA5A
:100B60001BBAF8DA80936C0081E088BB1BBAF2DA1A
:100B700080936D0018BB1BBAEDDA80936E00C0E065
:100B8000D0E080916600FE01089FE00DF11D112468
:100B9000CF01EE56FF4FE491EBBBFC01ED56FF4F4A
:100BA000E491E8BBFC01EC56FF4F8491E3DAFE01CF
:100BB000E556FF4FE491EBBBFE01E456FF4FE49195
:100BC000E8BBFE01E356FF4F8491B2DA2396C930A9
:100BD000D105B9F6F9DA10936A00F0926B0093DB55
:100BE0008091F2008093AE00809160008093AF000E
:100BF000E8E6F0E0EF012196808189DAFE01C05B32
:100C0000D040C1F7CFCE80916B0080936700809178
:100C10006C0081708093660080916D008093650008
:100C200080916E008093630080916F0080936400D8
:100C300080916A00813041F060F0823039F0833079
:100C400009F0AECE80E003C080E004C081E0B7DBF5
:0C0C5000A9CE81E020DDA6CEF894FFCFF5
:00000001FF
